{
  "contractName": "FlightSuretyData",
  "abi": [
    {
      "constant": true,
      "inputs": [
        {
          "name": "",
          "type": "address"
        }
      ],
      "name": "pendingPayments",
      "outputs": [
        {
          "name": "",
          "type": "uint256"
        }
      ],
      "payable": false,
      "stateMutability": "view",
      "type": "function"
    },
    {
      "inputs": [],
      "payable": false,
      "stateMutability": "nonpayable",
      "type": "constructor"
    },
    {
      "payable": true,
      "stateMutability": "payable",
      "type": "fallback"
    },
    {
      "constant": false,
      "inputs": [
        {
          "name": "contractAddress",
          "type": "address"
        }
      ],
      "name": "authorizeCaller",
      "outputs": [],
      "payable": false,
      "stateMutability": "nonpayable",
      "type": "function"
    },
    {
      "constant": true,
      "inputs": [
        {
          "name": "contractAddress",
          "type": "address"
        }
      ],
      "name": "isAuthorized",
      "outputs": [
        {
          "name": "",
          "type": "bool"
        }
      ],
      "payable": false,
      "stateMutability": "view",
      "type": "function"
    },
    {
      "constant": false,
      "inputs": [
        {
          "name": "contractAddress",
          "type": "address"
        }
      ],
      "name": "deauthorizeCaller",
      "outputs": [],
      "payable": false,
      "stateMutability": "nonpayable",
      "type": "function"
    },
    {
      "constant": true,
      "inputs": [],
      "name": "isOperational",
      "outputs": [
        {
          "name": "",
          "type": "bool"
        }
      ],
      "payable": false,
      "stateMutability": "view",
      "type": "function"
    },
    {
      "constant": true,
      "inputs": [
        {
          "name": "airline",
          "type": "address"
        }
      ],
      "name": "isAirlineRegisted",
      "outputs": [
        {
          "name": "",
          "type": "bool"
        }
      ],
      "payable": false,
      "stateMutability": "view",
      "type": "function"
    },
    {
      "constant": true,
      "inputs": [
        {
          "name": "airline",
          "type": "address"
        }
      ],
      "name": "isFundedAirline",
      "outputs": [
        {
          "name": "",
          "type": "bool"
        }
      ],
      "payable": false,
      "stateMutability": "view",
      "type": "function"
    },
    {
      "constant": true,
      "inputs": [],
      "name": "getRegisteredAirlines",
      "outputs": [
        {
          "name": "",
          "type": "address[]"
        }
      ],
      "payable": false,
      "stateMutability": "view",
      "type": "function"
    },
    {
      "constant": true,
      "inputs": [
        {
          "name": "airline",
          "type": "address"
        },
        {
          "name": "flight",
          "type": "string"
        },
        {
          "name": "timestamp",
          "type": "uint256"
        }
      ],
      "name": "isFlightRegistered",
      "outputs": [
        {
          "name": "",
          "type": "bool"
        }
      ],
      "payable": false,
      "stateMutability": "view",
      "type": "function"
    },
    {
      "constant": true,
      "inputs": [
        {
          "name": "passenger",
          "type": "address"
        },
        {
          "name": "airline",
          "type": "address"
        },
        {
          "name": "flight",
          "type": "string"
        },
        {
          "name": "timestamp",
          "type": "uint256"
        }
      ],
      "name": "isInsuredRegistered",
      "outputs": [
        {
          "name": "",
          "type": "bool"
        }
      ],
      "payable": false,
      "stateMutability": "view",
      "type": "function"
    },
    {
      "constant": false,
      "inputs": [
        {
          "name": "addr",
          "type": "address"
        }
      ],
      "name": "fundAirline",
      "outputs": [],
      "payable": false,
      "stateMutability": "nonpayable",
      "type": "function"
    },
    {
      "constant": true,
      "inputs": [
        {
          "name": "passenger",
          "type": "address"
        },
        {
          "name": "airline",
          "type": "address"
        },
        {
          "name": "flight",
          "type": "string"
        },
        {
          "name": "timestamp",
          "type": "uint256"
        }
      ],
      "name": "creditPassenger",
      "outputs": [
        {
          "name": "",
          "type": "uint256"
        }
      ],
      "payable": false,
      "stateMutability": "view",
      "type": "function"
    },
    {
      "constant": false,
      "inputs": [
        {
          "name": "airline",
          "type": "address"
        },
        {
          "name": "name",
          "type": "string"
        }
      ],
      "name": "registerAirline",
      "outputs": [
        {
          "name": "",
          "type": "bool"
        }
      ],
      "payable": false,
      "stateMutability": "nonpayable",
      "type": "function"
    },
    {
      "constant": false,
      "inputs": [
        {
          "name": "airline",
          "type": "address"
        },
        {
          "name": "flight",
          "type": "string"
        },
        {
          "name": "timestamp",
          "type": "uint256"
        }
      ],
      "name": "registerFlight",
      "outputs": [],
      "payable": false,
      "stateMutability": "nonpayable",
      "type": "function"
    },
    {
      "constant": false,
      "inputs": [
        {
          "name": "airline",
          "type": "address"
        },
        {
          "name": "flight",
          "type": "string"
        },
        {
          "name": "timestamp",
          "type": "uint256"
        },
        {
          "name": "statusCode",
          "type": "uint8"
        }
      ],
      "name": "processFlightStatus",
      "outputs": [],
      "payable": false,
      "stateMutability": "nonpayable",
      "type": "function"
    },
    {
      "constant": false,
      "inputs": [
        {
          "name": "airline",
          "type": "address"
        },
        {
          "name": "flight",
          "type": "string"
        },
        {
          "name": "timestamp",
          "type": "uint256"
        },
        {
          "name": "passenger",
          "type": "address"
        },
        {
          "name": "amount",
          "type": "uint256"
        }
      ],
      "name": "buy",
      "outputs": [
        {
          "name": "",
          "type": "bytes32"
        }
      ],
      "payable": true,
      "stateMutability": "payable",
      "type": "function"
    },
    {
      "constant": false,
      "inputs": [
        {
          "name": "insuredPassenger",
          "type": "address"
        }
      ],
      "name": "pay",
      "outputs": [
        {
          "name": "",
          "type": "uint256"
        },
        {
          "name": "",
          "type": "uint256"
        },
        {
          "name": "",
          "type": "address"
        }
      ],
      "payable": false,
      "stateMutability": "nonpayable",
      "type": "function"
    },
    {
      "constant": false,
      "inputs": [],
      "name": "fund",
      "outputs": [],
      "payable": true,
      "stateMutability": "payable",
      "type": "function"
    }
  ],
  "bytecode": "0x60806040526001600060146101000a81548160ff0219169083151502179055506000604051908082528060200260200182016040528015620000505781602001602082028038833980820191505090505b50600190805190602001906200006892919062000151565b5060006040519080825280602002602001820160405280156200009a5781602001602082028038833980820191505090505b5060049080519060200190620000b292919062000151565b506000604051908082528060200260200182016040528015620000e45781602001602082028038833980820191505090505b5060069080519060200190620000fc929190620001e0565b503480156200010a57600080fd5b50336000806101000a81548173ffffffffffffffffffffffffffffffffffffffff021916908373ffffffffffffffffffffffffffffffffffffffff160217905550620002a6565b828054828255906000526020600020908101928215620001cd579160200282015b82811115620001cc5782518260006101000a81548173ffffffffffffffffffffffffffffffffffffffff021916908373ffffffffffffffffffffffffffffffffffffffff1602179055509160200191906001019062000172565b5b509050620001dc919062000238565b5090565b82805482825590600052602060002090810192821562000225579160200282015b828111156200022457825182906000191690559160200191906001019062000201565b5b5090506200023491906200027e565b5090565b6200027b91905b808211156200027757600081816101000a81549073ffffffffffffffffffffffffffffffffffffffff0219169055506001016200023f565b5090565b90565b620002a391905b808211156200029f57600081600090555060010162000285565b5090565b90565b612ae880620002b66000396000f3006080604052600436106100fc576000357c0100000000000000000000000000000000000000000000000000000000900463ffffffff16806301224c92146101065780630c11dedd1461019f5780631124a92c14610230578063241a53cb1461028b5780632c388d5d146103085780633cc0be9c1461034b5780636873c21d146103b05780636fbb8798146103f35780637f38e52614610436578063a46f59011461048d578063b11dca781461052a578063b60d4288146105c8578063c23bcf09146105d2578063cd905dff1461063e578063e7bdde3b1461066d578063ee38a749146106df578063f3ba4e1b14610752578063fe9fbb80146107ad575b610104610808565b005b34801561011257600080fd5b50610189600480360381019080803573ffffffffffffffffffffffffffffffffffffffff169060200190929190803573ffffffffffffffffffffffffffffffffffffffff169060200190929190803590602001908201803590602001919091929391929390803590602001909291905050506108b4565b6040518082815260200191505060405180910390f35b3480156101ab57600080fd5b506101e0600480360381019080803573ffffffffffffffffffffffffffffffffffffffff169060200190929190505050610c12565b604051808481526020018381526020018273ffffffffffffffffffffffffffffffffffffffff1673ffffffffffffffffffffffffffffffffffffffff168152602001935050505060405180910390f35b34801561023c57600080fd5b50610271600480360381019080803573ffffffffffffffffffffffffffffffffffffffff169060200190929190505050610f3a565b604051808215151515815260200191505060405180910390f35b34801561029757600080fd5b506102ee600480360381019080803573ffffffffffffffffffffffffffffffffffffffff16906020019092919080359060200190820180359060200191909192939192939080359060200190929190505050610f93565b604051808215151515815260200191505060405180910390f35b34801561031457600080fd5b50610349600480360381019080803573ffffffffffffffffffffffffffffffffffffffff169060200190929190505050611007565b005b34801561035757600080fd5b506103ae600480360381019080803573ffffffffffffffffffffffffffffffffffffffff16906020019092919080359060200190820180359060200191909192939192939080359060200190929190505050611113565b005b3480156103bc57600080fd5b506103f1600480360381019080803573ffffffffffffffffffffffffffffffffffffffff169060200190929190505050611692565b005b3480156103ff57600080fd5b50610434600480360381019080803573ffffffffffffffffffffffffffffffffffffffff16906020019092919050505061179c565b005b34801561044257600080fd5b50610477600480360381019080803573ffffffffffffffffffffffffffffffffffffffff169060200190929190505050611981565b6040518082815260200191505060405180910390f35b34801561049957600080fd5b50610510600480360381019080803573ffffffffffffffffffffffffffffffffffffffff169060200190929190803573ffffffffffffffffffffffffffffffffffffffff16906020019092919080359060200190820180359060200191909192939192939080359060200190929190505050611999565b604051808215151515815260200191505060405180910390f35b6105aa600480360381019080803573ffffffffffffffffffffffffffffffffffffffff16906020019092919080359060200190820180359060200191909192939192939080359060200190929190803573ffffffffffffffffffffffffffffffffffffffff16906020019092919080359060200190929190505050611b57565b60405180826000191660001916815260200191505060405180910390f35b6105d0610808565b005b3480156105de57600080fd5b506105e7611d50565b6040518080602001828103825283818151815260200191508051906020019060200280838360005b8381101561062a57808201518184015260208101905061060f565b505050509050019250505060405180910390f35b34801561064a57600080fd5b50610653611dde565b604051808215151515815260200191505060405180910390f35b34801561067957600080fd5b506106dd600480360381019080803573ffffffffffffffffffffffffffffffffffffffff16906020019092919080359060200190820180359060200191909192939192939080359060200190929190803560ff169060200190929190505050611df4565b005b3480156106eb57600080fd5b50610738600480360381019080803573ffffffffffffffffffffffffffffffffffffffff169060200190929190803590602001908201803590602001919091929391929390505050612058565b604051808215151515815260200191505060405180910390f35b34801561075e57600080fd5b50610793600480360381019080803573ffffffffffffffffffffffffffffffffffffffff1690602001909291905050506124b6565b604051808215151515815260200191505060405180910390f35b3480156107b957600080fd5b506107ee600480360381019080803573ffffffffffffffffffffffffffffffffffffffff16906020019092919050505061250f565b604051808215151515815260200191505060405180910390f35b600060149054906101000a900460ff1615156108b2576040517f08c379a00000000000000000000000000000000000000000000000000000000081526004018080602001828103825260258152602001807f436f6e74726163742069732063757272656e746c79206e6f74206f706572617481526020017f696f6e616c00000000000000000000000000000000000000000000000000000081525060400191505060405180910390fd5b565b6000606060008060149054906101000a900460ff161515610963576040517f08c379a00000000000000000000000000000000000000000000000000000000081526004018080602001828103825260258152602001807f436f6e74726163742069732063757272656e746c79206e6f74206f706572617481526020017f696f6e616c00000000000000000000000000000000000000000000000000000081525060400191505060405180910390fd5b6001600260003373ffffffffffffffffffffffffffffffffffffffff1673ffffffffffffffffffffffffffffffffffffffff16815260200190815260200160002054141515610a40576040517f08c379a00000000000000000000000000000000000000000000000000000000081526004018080602001828103825260248152602001807f43616c6c6572206973206e6f7420616e20617574686f72697a656420636f6e7481526020017f726163740000000000000000000000000000000000000000000000000000000081525060400191505060405180910390fd5b60076000610a818989898080601f0160208091040260200160405190810160405280939291908181526020018383808284378201915050505050508861255b565b60001916600019168152602001908152602001600020805480602002602001604051908101604052809291908181526020016000905b82821015610b6f5783829060005260206000209060040201608060405190810160405290816000820160009054906101000a900473ffffffffffffffffffffffffffffffffffffffff1673ffffffffffffffffffffffffffffffffffffffff1673ffffffffffffffffffffffffffffffffffffffff16815260200160018201548152602001600282015481526020016003820160009054906101000a900460ff16151515158152505081526020019060010190610ab7565b505050509150600090505b8151811015610c02578773ffffffffffffffffffffffffffffffffffffffff168282815181101515610ba857fe5b906020019060200201516000015173ffffffffffffffffffffffffffffffffffffffff161415610bf5578181815181101515610be057fe5b90602001906020020151602001519250610c07565b8080600101915050610b7a565b600092505b505095945050505050565b600080600080600060149054906101000a900460ff161515610cc2576040517f08c379a00000000000000000000000000000000000000000000000000000000081526004018080602001828103825260258152602001807f436f6e74726163742069732063757272656e746c79206e6f74206f706572617481526020017f696f6e616c00000000000000000000000000000000000000000000000000000081525060400191505060405180910390fd5b3273ffffffffffffffffffffffffffffffffffffffff168573ffffffffffffffffffffffffffffffffffffffff16141515610d65576040517f08c379a00000000000000000000000000000000000000000000000000000000081526004018080602001828103825260158152602001807f436f6e747261637473206e6f7420616c6c6f776564000000000000000000000081525060200191505060405180910390fd5b6000600860008773ffffffffffffffffffffffffffffffffffffffff1673ffffffffffffffffffffffffffffffffffffffff16815260200190815260200160002054111515610e1c576040517f08c379a00000000000000000000000000000000000000000000000000000000081526004018080602001828103825260208152602001807f4e6f2066756e6420617661696c61626c6520666f72207769746864726177616c81525060200191505060405180910390fd5b600860008673ffffffffffffffffffffffffffffffffffffffff1673ffffffffffffffffffffffffffffffffffffffff1681526020019081526020016000205490506000600860008773ffffffffffffffffffffffffffffffffffffffff1673ffffffffffffffffffffffffffffffffffffffff168152602001908152602001600020819055508473ffffffffffffffffffffffffffffffffffffffff166108fc829081150290604051600060405180830381858888f19350505050158015610ee9573d6000803e3d6000fd5b5080600860008773ffffffffffffffffffffffffffffffffffffffff1673ffffffffffffffffffffffffffffffffffffffff1681526020019081526020016000205486935093509350509193909250565b6000600360008373ffffffffffffffffffffffffffffffffffffffff1673ffffffffffffffffffffffffffffffffffffffff16815260200190815260200160002060010160019054906101000a900460ff169050919050565b600060056000610fd68787878080601f0160208091040260200160405190810160405280939291908181526020018383808284378201915050505050508661255b565b6000191660001916815260200190815260200160002060000160009054906101000a900460ff169050949350505050565b6000809054906101000a900473ffffffffffffffffffffffffffffffffffffffff1673ffffffffffffffffffffffffffffffffffffffff163373ffffffffffffffffffffffffffffffffffffffff161415156110cb576040517f08c379a000000000000000000000000000000000000000000000000000000000815260040180806020018281038252601c8152602001807f43616c6c6572206973206e6f7420636f6e7472616374206f776e65720000000081525060200191505060405180910390fd5b6001600260008373ffffffffffffffffffffffffffffffffffffffff1673ffffffffffffffffffffffffffffffffffffffff1681526020019081526020016000208190555050565b60008060149054906101000a900460ff1615156111be576040517f08c379a00000000000000000000000000000000000000000000000000000000081526004018080602001828103825260258152602001807f436f6e74726163742069732063757272656e746c79206e6f74206f706572617481526020017f696f6e616c00000000000000000000000000000000000000000000000000000081525060400191505060405180910390fd5b6001600260003373ffffffffffffffffffffffffffffffffffffffff1673ffffffffffffffffffffffffffffffffffffffff1681526020019081526020016000205414151561129b576040517f08c379a00000000000000000000000000000000000000000000000000000000081526004018080602001828103825260248152602001807f43616c6c6572206973206e6f7420616e20617574686f72697a656420636f6e7481526020017f726163740000000000000000000000000000000000000000000000000000000081525060400191505060405180910390fd5b843073ffffffffffffffffffffffffffffffffffffffff1663f3ba4e1b826040518263ffffffff167c0100000000000000000000000000000000000000000000000000000000028152600401808273ffffffffffffffffffffffffffffffffffffffff1673ffffffffffffffffffffffffffffffffffffffff168152602001915050602060405180830381600087803b15801561133757600080fd5b505af115801561134b573d6000803e3d6000fd5b505050506040513d602081101561136157600080fd5b8101908080519060200190929190505050151561140c576040517f08c379a000000000000000000000000000000000000000000000000000000000815260040180806020018281038252602d8152602001807f4f6e6c79206578697374696e6720616e642066756e646564206169726c696e6581526020017f732061726520616c6c6f7765640000000000000000000000000000000000000081525060400191505060405180910390fd5b8160056000826000191660001916815260200190815260200160002060000160009054906101000a900460ff161515156114d4576040517f08c379a00000000000000000000000000000000000000000000000000000000081526004018080602001828103825260228152602001807f466c696768742068617320616c7265616479206265656e20726567697374657281526020017f656400000000000000000000000000000000000000000000000000000000000081525060400191505060405180910390fd5b6115118787878080601f0160208091040260200160405190810160405280939291908181526020018383808284378201915050505050508661255b565b925060a060405190810160405280600115158152602001600060ff1681526020018581526020018873ffffffffffffffffffffffffffffffffffffffff16815260200187878080601f01602080910402602001604051908101604052809392919081815260200183838082843782019150505050505081525060056000856000191660001916815260200190815260200160002060008201518160000160006101000a81548160ff02191690831515021790555060208201518160000160016101000a81548160ff021916908360ff1602179055506040820151816001015560608201518160020160006101000a81548173ffffffffffffffffffffffffffffffffffffffff021916908373ffffffffffffffffffffffffffffffffffffffff16021790555060808201518160030190805190602001906116539291906129d6565b50905050600683908060018154018082558091505090600182039060005260206000200160009091929091909150906000191690555050505050505050565b6000809054906101000a900473ffffffffffffffffffffffffffffffffffffffff1673ffffffffffffffffffffffffffffffffffffffff163373ffffffffffffffffffffffffffffffffffffffff16141515611756576040517f08c379a000000000000000000000000000000000000000000000000000000000815260040180806020018281038252601c8152602001807f43616c6c6572206973206e6f7420636f6e7472616374206f776e65720000000081525060200191505060405180910390fd5b600260008273ffffffffffffffffffffffffffffffffffffffff1673ffffffffffffffffffffffffffffffffffffffff1681526020019081526020016000206000905550565b600060149054906101000a900460ff161515611846576040517f08c379a00000000000000000000000000000000000000000000000000000000081526004018080602001828103825260258152602001807f436f6e74726163742069732063757272656e746c79206e6f74206f706572617481526020017f696f6e616c00000000000000000000000000000000000000000000000000000081525060400191505060405180910390fd5b6001600260003373ffffffffffffffffffffffffffffffffffffffff1673ffffffffffffffffffffffffffffffffffffffff16815260200190815260200160002054141515611923576040517f08c379a00000000000000000000000000000000000000000000000000000000081526004018080602001828103825260248152602001807f43616c6c6572206973206e6f7420616e20617574686f72697a656420636f6e7481526020017f726163740000000000000000000000000000000000000000000000000000000081525060400191505060405180910390fd5b6001600360008373ffffffffffffffffffffffffffffffffffffffff1673ffffffffffffffffffffffffffffffffffffffff16815260200190815260200160002060010160006101000a81548160ff02191690831515021790555050565b60086020528060005260406000206000915090505481565b600060606000600760006119e08989898080601f0160208091040260200160405190810160405280939291908181526020018383808284378201915050505050508861255b565b60001916600019168152602001908152602001600020805480602002602001604051908101604052809291908181526020016000905b82821015611ace5783829060005260206000209060040201608060405190810160405290816000820160009054906101000a900473ffffffffffffffffffffffffffffffffffffffff1673ffffffffffffffffffffffffffffffffffffffff1673ffffffffffffffffffffffffffffffffffffffff16815260200160018201548152602001600282015481526020016003820160009054906101000a900460ff16151515158152505081526020019060010190611a16565b505050509150600090505b8151811015611b47578773ffffffffffffffffffffffffffffffffffffffff168282815181101515611b0757fe5b906020019060200201516000015173ffffffffffffffffffffffffffffffffffffffff161415611b3a5760019250611b4c565b8080600101915050611ad9565b600092505b505095945050505050565b600080600060149054906101000a900460ff161515611c04576040517f08c379a00000000000000000000000000000000000000000000000000000000081526004018080602001828103825260258152602001807f436f6e74726163742069732063757272656e746c79206e6f74206f706572617481526020017f696f6e616c00000000000000000000000000000000000000000000000000000081525060400191505060405180910390fd5b611c418888888080601f0160208091040260200160405190810160405280939291908181526020018383808284378201915050505050508761255b565b90506007600082600019166000191681526020019081526020016000206080604051908101604052808673ffffffffffffffffffffffffffffffffffffffff168152602001858152602001348152602001600015158152509080600181540180825580915050906001820390600052602060002090600402016000909192909190915060008201518160000160006101000a81548173ffffffffffffffffffffffffffffffffffffffff021916908373ffffffffffffffffffffffffffffffffffffffff160217905550602082015181600101556040820151816002015560608201518160030160006101000a81548160ff021916908315150217905550505050809150509695505050505050565b60606004805480602002602001604051908101604052809291908181526020018280548015611dd457602002820191906000526020600020905b8160009054906101000a900473ffffffffffffffffffffffffffffffffffffffff1673ffffffffffffffffffffffffffffffffffffffff1681526020019060010190808311611d8a575b5050505050905090565b60008060149054906101000a900460ff16905090565b60008060149054906101000a900460ff161515611e9f576040517f08c379a00000000000000000000000000000000000000000000000000000000081526004018080602001828103825260258152602001807f436f6e74726163742069732063757272656e746c79206e6f74206f706572617481526020017f696f6e616c00000000000000000000000000000000000000000000000000000081525060400191505060405180910390fd5b6001600260003373ffffffffffffffffffffffffffffffffffffffff1673ffffffffffffffffffffffffffffffffffffffff16815260200190815260200160002054141515611f7c576040517f08c379a00000000000000000000000000000000000000000000000000000000081526004018080602001828103825260248152602001807f43616c6c6572206973206e6f7420616e20617574686f72697a656420636f6e7481526020017f726163740000000000000000000000000000000000000000000000000000000081525060400191505060405180910390fd5b611fb98686868080601f0160208091040260200160405190810160405280939291908181526020018383808284378201915050505050508561255b565b90508160056000836000191660001916815260200190815260200160002060000160016101000a81548160ff021916908360ff160217905550601460ff168260ff16148061200d5750602860ff168260ff16145b156120505761204f8686868080601f01602080910402602001604051908101604052809392919081815260200183838082843782019150505050505085612680565b5b505050505050565b60008060149054906101000a900460ff161515612103576040517f08c379a00000000000000000000000000000000000000000000000000000000081526004018080602001828103825260258152602001807f436f6e74726163742069732063757272656e746c79206e6f74206f706572617481526020017f696f6e616c00000000000000000000000000000000000000000000000000000081525060400191505060405180910390fd5b6001600260003373ffffffffffffffffffffffffffffffffffffffff1673ffffffffffffffffffffffffffffffffffffffff168152602001908152602001600020541415156121e0576040517f08c379a00000000000000000000000000000000000000000000000000000000081526004018080602001828103825260248152602001807f43616c6c6572206973206e6f7420616e20617574686f72697a656420636f6e7481526020017f726163740000000000000000000000000000000000000000000000000000000081525060400191505060405180910390fd5b833073ffffffffffffffffffffffffffffffffffffffff16631124a92c826040518263ffffffff167c0100000000000000000000000000000000000000000000000000000000028152600401808273ffffffffffffffffffffffffffffffffffffffff1673ffffffffffffffffffffffffffffffffffffffff168152602001915050602060405180830381600087803b15801561227c57600080fd5b505af1158015612290573d6000803e3d6000fd5b505050506040513d60208110156122a657600080fd5b81019080805190602001909291905050501515612351576040517f08c379a00000000000000000000000000000000000000000000000000000000081526004018080602001828103825260238152602001807f4169726c696e652068617320616c7265616479206265656e207265676973746581526020017f726564000000000000000000000000000000000000000000000000000000000081525060400191505060405180910390fd5b60606040519081016040528085858080601f016020809104026020016040519081016040528093929190818152602001838380828437820191505050505050815260200160001515815260200160011515815250600360008773ffffffffffffffffffffffffffffffffffffffff1673ffffffffffffffffffffffffffffffffffffffff16815260200190815260200160002060008201518160000190805190602001906124009291906129d6565b5060208201518160010160006101000a81548160ff02191690831515021790555060408201518160010160016101000a81548160ff02191690831515021790555090505060048590806001815401808255809150509060018203906000526020600020016000909192909190916101000a81548173ffffffffffffffffffffffffffffffffffffffff021916908373ffffffffffffffffffffffffffffffffffffffff1602179055505060019150509392505050565b6000600360008373ffffffffffffffffffffffffffffffffffffffff1673ffffffffffffffffffffffffffffffffffffffff16815260200190815260200160002060010160009054906101000a900460ff169050919050565b60006001600260008473ffffffffffffffffffffffffffffffffffffffff1673ffffffffffffffffffffffffffffffffffffffff16815260200190815260200160002054149050919050565b6000838383604051602001808473ffffffffffffffffffffffffffffffffffffffff1673ffffffffffffffffffffffffffffffffffffffff166c0100000000000000000000000002815260140183805190602001908083835b6020831015156125d957805182526020820191506020810190506020830392506125b4565b6001836020036101000a03801982511681845116808217855250505050505090500182815260200193505050506040516020818303038152906040526040518082805190602001908083835b60208310151561264a5780518252602082019150602081019050602083039250612625565b6001836020036101000a038019825116818451168082178552505050505050905001915050604051809103902090509392505050565b60008061268b612a56565b600060149054906101000a900460ff161515612735576040517f08c379a00000000000000000000000000000000000000000000000000000000081526004018080602001828103825260258152602001807f436f6e74726163742069732063757272656e746c79206e6f74206f706572617481526020017f696f6e616c00000000000000000000000000000000000000000000000000000081525060400191505060405180910390fd5b6001600260003373ffffffffffffffffffffffffffffffffffffffff1673ffffffffffffffffffffffffffffffffffffffff16815260200190815260200160002054141515612812576040517f08c379a00000000000000000000000000000000000000000000000000000000081526004018080602001828103825260248152602001807f43616c6c6572206973206e6f7420616e20617574686f72697a656420636f6e7481526020017f726163740000000000000000000000000000000000000000000000000000000081525060400191505060405180910390fd5b61281d86868661255b565b9250600091505b60076000846000191660001916815260200190815260200160002080549050821015612980576007600084600019166000191681526020019081526020016000208281548110151561287257fe5b9060005260206000209060040201608060405190810160405290816000820160009054906101000a900473ffffffffffffffffffffffffffffffffffffffff1673ffffffffffffffffffffffffffffffffffffffff1673ffffffffffffffffffffffffffffffffffffffff16815260200160018201548152602001600282015481526020016003820160009054906101000a900460ff16151515158152505090506000151581606001511515141561297357600181606001901515908115158152505061296360646129558360400151846020015161298890919063ffffffff16565b6129c090919063ffffffff16565b8160200181815101915081815250505b8180600101925050612824565b505050505050565b60008083141561299b57600090506129ba565b81830290508183828115156129ac57fe5b041415156129b657fe5b8090505b92915050565b600081838115156129cd57fe5b04905092915050565b828054600181600116156101000203166002900490600052602060002090601f016020900481019282601f10612a1757805160ff1916838001178555612a45565b82800160010185558215612a45579182015b82811115612a44578251825591602001919060010190612a29565b5b509050612a529190612a97565b5090565b608060405190810160405280600073ffffffffffffffffffffffffffffffffffffffff16815260200160008152602001600081526020016000151581525090565b612ab991905b80821115612ab5576000816000905550600101612a9d565b5090565b905600a165627a7a7230582014b5f45d4793f6449fcdcb30d7cc1023a48eee5bfc66c690b77c253f6cfc6dd40029",
  "source": "pragma solidity ^0.4.25;\r\n\r\nimport \"../node_modules/openzeppelin-solidity/contracts/math/SafeMath.sol\";\r\n\r\ncontract FlightSuretyData {\r\n    using SafeMath for uint256;\r\n\r\n    /********************************************************************************************/\r\n    /*                                       DATA VARIABLES                                     */\r\n    /********************************************************************************************/\r\n\r\n    address private contractOwner;                                      // Account used to deploy contract\r\n    bool private operational = true;                                    // Blocks all state changes throughout the contract if false\r\n\r\n    // Multi-party consensus\r\n    // Added to setOperational() to practice the concept\r\n    uint constant AUTHORIZED = 1;\r\n    address[] multiCalls = new address[](0);\r\n\r\n     // Restrict data contract callers\r\n    mapping(address => uint256) private authorizedContracts;\r\n        // Airlines\r\n    struct Airline {\r\n        string name;\r\n        bool isFunded;\r\n        bool isRegistered;\r\n    }\r\n    mapping(address => Airline) private airlines;\r\n    address[] registeredAirlines = new address[](0);\r\n\r\n    // Flights\r\n    struct Flight {\r\n        bool isRegistered;\r\n        uint8 statusCode;\r\n        uint256 updatedTimestamp;\r\n        address airline;\r\n        string flight;\r\n    }\r\n    mapping(bytes32 => Flight) private flights;\r\n    bytes32[] registeredFlights = new bytes32[](0);\r\n\r\n    // Insurances\r\n    struct Insurance {\r\n        address passenger;\r\n        uint256 amount; // Passenger insurance payment\r\n        uint256 multiplier; // General damages multiplier (1.5x by default)\r\n        bool isCredited;\r\n    }\r\n    mapping (bytes32 => Insurance[]) insuredPassengersPerFlight;\r\n    mapping (address => uint) public pendingPayments;\r\n    // Flight status codees\r\n    uint8 private constant STATUS_CODE_UNKNOWN = 0;\r\n    uint8 private constant STATUS_CODE_ON_TIME = 10;\r\n    uint8 private constant STATUS_CODE_LATE_AIRLINE = 20;\r\n    uint8 private constant STATUS_CODE_LATE_WEATHER = 30;\r\n    uint8 private constant STATUS_CODE_LATE_TECHNICAL = 40;\r\n    uint8 private constant STATUS_CODE_LATE_OTHER = 50;\r\n\r\n    /********************************************************************************************/\r\n    /*                                       EVENT DEFINITIONS                                  */\r\n    /********************************************************************************************/\r\n\r\n    \r\n    /**\r\n    * @dev Constructor\r\n    *      The deploying account becomes contractOwner\r\n    */\r\n    constructor\r\n                                (\r\n                                ) \r\n                                public \r\n    {\r\n         contractOwner = msg.sender;\r\n    }\r\n\r\n    /********************************************************************************************/\r\n    /*                                       FUNCTION MODIFIERS                                 */\r\n    /********************************************************************************************/\r\n\r\n    // Modifiers help avoid duplication of code. They are typically used to validate something\r\n    // before a function is allowed to be executed.\r\n\r\n    /**\r\n    * @dev Modifier that requires the \"operational\" boolean variable to be \"true\"\r\n    *      This is used on all state changing functions to pause the contract in \r\n    *      the event there is an issue that needs to be fixed\r\n    */\r\n    modifier requireIsOperational() \r\n    {\r\n        require(operational, \"Contract is currently not operational\");\r\n        _;  // All modifiers require an \"_\" which indicates where the function body will be added\r\n    }\r\n\r\n    /**\r\n    * @dev Modifier that requires the \"ContractOwner\" account to be the function caller\r\n    */\r\n    modifier requireContractOwner()\r\n    {\r\n        require(msg.sender == contractOwner, \"Caller is not contract owner\");\r\n        _;\r\n    }\r\n\r\n    /**\r\n    * @dev Modifier that requires the calling App contract has been authorized\r\n    */\r\n    modifier requireIsCallerAuthorized()\r\n    {\r\n        require(authorizedContracts[msg.sender] == AUTHORIZED, \"Caller is not an authorized contract\");\r\n        _;\r\n    }\r\n\r\n    /**\r\n    * @dev Modifier that requires the calling App contract has been authorized\r\n    */\r\n      function authorizeCaller\r\n                            (\r\n                                address contractAddress\r\n                            )\r\n                            external\r\n                            requireContractOwner\r\n    {\r\n        authorizedContracts[contractAddress] = AUTHORIZED;\r\n    }\r\n\r\n    /**\r\n    * @dev Modifier that requires the calling App contract is authorized\r\n    */\r\n     function isAuthorized\r\n                            (\r\n                                address contractAddress\r\n                            )\r\n                            external\r\n                            view\r\n                            returns(bool)\r\n    {\r\n        return(authorizedContracts[contractAddress] == AUTHORIZED);\r\n    }\r\n\r\n  /**\r\n    * @dev The modifier can disallow the contract\r\n    */\r\n    function deauthorizeCaller\r\n                            (\r\n                                address contractAddress\r\n                            )\r\n                            external\r\n                            requireContractOwner\r\n    {\r\n        delete authorizedContracts[contractAddress];\r\n    }\r\n\r\n    /********************************************************************************************/\r\n    /*                                       UTILITY FUNCTIONS                                  */\r\n    /********************************************************************************************/\r\n\r\n    /**\r\n    * @dev Modifier that requires airline to be funded\r\n    */\r\n    modifier requireAirlineIsFunded(address airline) {\r\n        require(this.isFundedAirline(airline), \"Only existing and funded airlines are allowed\");\r\n        _;\r\n    }\r\n      /**\r\n    * @dev Modifier that requires airline to be funded\r\n    */\r\n    modifier requireAirlineRegisted(address airline) {\r\n        require(this.isAirlineRegisted(airline), \"Airline has already been registered\");\r\n        _;\r\n    }\r\n\r\n    /**\r\n    * @dev Modifier that requires airline to be funded\r\n    */\r\n    modifier requireFlightRegisted(bytes32 flightKey) {\r\n        require(!flights[flightKey].isRegistered, \"Flight has already been registered\");\r\n        _;\r\n    }\r\n\r\n    /********************************************************************************************/\r\n    /*                                     SMART CONTRACT FUNCTIONS                             */\r\n    /********************************************************************************************/\r\n\r\n     /**\r\n   * @dev Get operating status of contract\r\n   *\r\n   * @return A bool that is the current operating status\r\n   */      \r\n  function isOperational() public view returns(bool) {\r\n    return operational;\r\n  }\r\n\r\n  /**\r\n   * @dev Check if the address is a registered airline\r\n   *\r\n   * @return A bool confirming whether or not the address is a registered airline\r\n   */\r\n  function isAirlineRegisted(address airline) external view returns(bool) {\r\n    return airlines[airline].isRegistered;\r\n  }\r\n\r\n  /**\r\n   * @dev Check if the address is a funded airline\r\n   *\r\n   * @return A bool confirming whether or not the address is a funded airline\r\n   */\r\n  function isFundedAirline(address airline) external view returns(bool) {\r\n    return airlines[airline].isFunded;\r\n  }\r\n\r\n  /**\r\n   * @dev Get registered airlines\r\n   *\r\n   * @return An array with the addresses of all registered airlines\r\n   */\r\n  function getRegisteredAirlines() external view returns(address[] memory) {\r\n    return registeredAirlines;\r\n  }\r\n\r\n  /**\r\n   * @dev Check if the flight is registered\r\n   */\r\n  function isFlightRegistered(address airline, string flight, uint256 timestamp) external view returns(bool) {\r\n    return flights[getFlightKey(airline, flight, timestamp)].isRegistered;\r\n  }\r\n  /**\r\n   * @dev Check if the passenger is registerd for the flight\r\n   */\r\n  function isInsuredRegistered(address passenger, address airline, string flight, uint256 timestamp) external view returns (bool) {\r\n    Insurance[] memory insuredPassengers = insuredPassengersPerFlight[getFlightKey(airline, flight, timestamp)];\r\n    for(uint i = 0; i < insuredPassengers.length; i++) {\r\n      if (insuredPassengers[i].passenger == passenger) {\r\n        return true;\r\n      }\r\n    }\r\n    return false;\r\n  }\r\n    /**\r\n   * @dev Submit funding for airline to true\r\n   */   \r\n  function fundAirline(address addr) external requireIsOperational requireIsCallerAuthorized {\r\n    airlines[addr].isFunded = true;\r\n  }\r\n    /**\r\n   * @dev check credit of the Passenger \r\n   */   \r\n  function creditPassenger(address passenger, address airline, string flight, uint256 timestamp) external view requireIsOperational requireIsCallerAuthorized returns(uint256) {\r\n    Insurance[] memory passengers = insuredPassengersPerFlight[getFlightKey(airline, flight, timestamp)];\r\n    for(uint i = 0; i < passengers.length; i++) {\r\n          if (passengers[i].passenger == passenger) {\r\n            return passengers[i].amount;\r\n          }\r\n        }\r\n    return 0;\r\n  }\r\n   \r\n   /**\r\n    * @dev Add an airline to the registration \r\n    *\r\n    */   \r\n    function registerAirline(address airline, string name)external requireIsOperational requireIsCallerAuthorized requireAirlineRegisted(airline) returns (bool)\r\n    {\r\n        airlines[airline] = Airline({\r\n                                    name: name,\r\n                                    isFunded: false, \r\n                                    isRegistered: true\r\n                                    });\r\n\r\n        registeredAirlines.push(airline);\r\n\r\n        return true;\r\n    }\r\n\r\n  /**\r\n   * @dev Register a flight\r\n   */\r\n  function registerFlight(address airline, string flight, uint256 timestamp) external requireIsOperational requireIsCallerAuthorized requireAirlineIsFunded(airline) requireFlightRegisted(flightKey) {\r\n    bytes32 flightKey = getFlightKey(airline, flight, timestamp);\r\n\r\n    flights[flightKey] = Flight({\r\n      isRegistered: true,\r\n      statusCode: 0,\r\n      updatedTimestamp: timestamp,\r\n      airline: airline,\r\n      flight: flight\r\n    });\r\n\r\n    registeredFlights.push(flightKey);\r\n\r\n  }\r\n    /**\r\n   * @dev Process flights\r\n   */\r\n    function processFlightStatus(address airline, string flight, uint256 timestamp, uint8 statusCode) external requireIsOperational requireIsCallerAuthorized {\r\n        bytes32 flightKey = getFlightKey(airline, flight, timestamp);    \r\n        \r\n        flights[flightKey].statusCode = statusCode;\r\n        if ((statusCode == STATUS_CODE_LATE_AIRLINE) || (statusCode == STATUS_CODE_LATE_TECHNICAL)) {\r\n          creditInsurees(airline, flight, timestamp);\r\n        }\r\n    }\r\n    \r\n    /**\r\n    * @dev Credits payouts to insurees\r\n    */\r\n    function creditInsurees(address airline, string memory flight, uint256 timestamp) internal view requireIsOperational requireIsCallerAuthorized {\r\n        bytes32 flightKey = getFlightKey(airline, flight, timestamp);\r\n\r\n        for (uint i = 0; i < insuredPassengersPerFlight[flightKey].length; i++) {\r\n        Insurance memory insurance = insuredPassengersPerFlight[flightKey][i];\r\n\r\n        if (insurance.isCredited == false) {\r\n            insurance.isCredited = true;\r\n            insurance.amount += insurance.amount.mul(insurance.multiplier).div(100);\r\n            }\r\n        }\r\n    }\r\n\r\n   /**\r\n    * @dev Buy insurance for a flight\r\n    *\r\n    */   \r\n    function buy(address airline,string flight,uint256 timestamp,address passenger,uint256 amount) external payable requireIsOperational returns (bytes32)\r\n    {\r\n        bytes32 flightKey = getFlightKey(airline, flight, timestamp);\r\n\r\n        insuredPassengersPerFlight[flightKey].push(Insurance({\r\n        passenger: passenger,\r\n        amount: amount,\r\n        multiplier: msg.value,\r\n        isCredited: false\r\n        }));\r\n        return flightKey;\r\n    }\r\n\r\n    /**\r\n     *  @dev Transfers eligible payout funds to insuree\r\n     *\r\n    */\r\n    function pay(address insuredPassenger)public requireIsOperational returns (uint256, uint256, address)\r\n    {\r\n        require(insuredPassenger == tx.origin, \"Contracts not allowed\");\r\n        require(pendingPayments[insuredPassenger] > 0, \"No fund available for withdrawal\");\r\n\r\n        uint256 amount = pendingPayments[insuredPassenger];\r\n        pendingPayments[insuredPassenger] = 0;\r\n      \r\n        address(insuredPassenger).transfer(amount);\r\n        return (amount, pendingPayments[insuredPassenger], address(insuredPassenger));\r\n    }\r\n\r\n   /**\r\n    * @dev Initial funding for the insurance. Unless there are too many delayed flights\r\n    *      resulting in insurance payouts, the contract should be self-sustaining\r\n    *\r\n    */   \r\n    function fund\r\n                            (   \r\n                            )\r\n                            public\r\n                            payable\r\n                            requireIsOperational\r\n    {\r\n\r\n    }\r\n\r\n    function getFlightKey\r\n                        (\r\n                            address airline,\r\n                            string memory flight,\r\n                            uint256 timestamp\r\n                        )\r\n                        pure\r\n                        internal\r\n                        returns(bytes32) \r\n    {\r\n        return keccak256(abi.encodePacked(airline, flight, timestamp));\r\n    }\r\n\r\n    /**\r\n    * @dev Fallback function for funding smart contract.\r\n    *\r\n    */\r\n    function() \r\n                            external \r\n                            payable \r\n    {\r\n        fund();\r\n    }\r\n\r\n\r\n}\r\n",
  "sourcePath": "C:\\Users\\Rafael Muraro\\OneDrive\\Documentos\\cursos\\bitcoin\\project4\\FlightSurety\\contracts\\FlightSuretyData.sol",
  "compiler": {
    "name": "solc",
    "version": "0.4.26+commit.4563c3fc.Emscripten.clang"
  },
  "schemaVersion": "3.0.23",
  "updatedAt": "2022-05-06T12:20:31.642Z",
  "devdoc": {
    "methods": {
      "authorizeCaller(address)": {
        "details": "Modifier that requires the calling App contract has been authorized\r"
      },
      "buy(address,string,uint256,address,uint256)": {
        "details": "Buy insurance for a flight\r     "
      },
      "creditPassenger(address,address,string,uint256)": {
        "details": "check credit of the Passenger \r"
      },
      "deauthorizeCaller(address)": {
        "details": "The modifier can disallow the contract\r"
      },
      "fund()": {
        "details": "Initial funding for the insurance. Unless there are too many delayed flights\r     resulting in insurance payouts, the contract should be self-sustaining\r     "
      },
      "fundAirline(address)": {
        "details": "Submit funding for airline to true\r"
      },
      "getRegisteredAirlines()": {
        "details": "Get registered airlines\r ",
        "return": "An array with the addresses of all registered airlines\r"
      },
      "isAirlineRegisted(address)": {
        "details": "Check if the address is a registered airline\r ",
        "return": "A bool confirming whether or not the address is a registered airline\r"
      },
      "isAuthorized(address)": {
        "details": "Modifier that requires the calling App contract is authorized\r"
      },
      "isFlightRegistered(address,string,uint256)": {
        "details": "Check if the flight is registered\r"
      },
      "isFundedAirline(address)": {
        "details": "Check if the address is a funded airline\r ",
        "return": "A bool confirming whether or not the address is a funded airline\r"
      },
      "isInsuredRegistered(address,address,string,uint256)": {
        "details": "Check if the passenger is registerd for the flight\r"
      },
      "isOperational()": {
        "details": "Get operating status of contract\r ",
        "return": "A bool that is the current operating status\r"
      },
      "pay(address)": {
        "details": "Transfers eligible payout funds to insuree\r     "
      },
      "processFlightStatus(address,string,uint256,uint8)": {
        "details": "Process flights\r"
      },
      "registerAirline(address,string)": {
        "details": "Add an airline to the registration \r     "
      },
      "registerFlight(address,string,uint256)": {
        "details": "Register a flight\r"
      }
    }
  },
  "userdoc": {
    "methods": {}
  }
}